{
  "_format": "hh-sol-artifact-1",
  "contractName": "BridgeBsc",
  "sourceName": "contracts/BridgeBsc.sol",
  "abi": [
    {
      "inputs": [
        {
          "internalType": "address",
          "name": "token",
          "type": "address"
        }
      ],
      "stateMutability": "nonpayable",
      "type": "constructor"
    },
    {
      "anonymous": false,
      "inputs": [
        {
          "indexed": true,
          "internalType": "address",
          "name": "previousOwner",
          "type": "address"
        },
        {
          "indexed": true,
          "internalType": "address",
          "name": "newOwner",
          "type": "address"
        }
      ],
      "name": "OwnershipTransferred",
      "type": "event"
    },
    {
      "anonymous": false,
      "inputs": [
        {
          "indexed": false,
          "internalType": "address",
          "name": "from",
          "type": "address"
        },
        {
          "indexed": false,
          "internalType": "address",
          "name": "to",
          "type": "address"
        },
        {
          "indexed": false,
          "internalType": "uint256",
          "name": "amount",
          "type": "uint256"
        },
        {
          "indexed": false,
          "internalType": "uint256",
          "name": "date",
          "type": "uint256"
        },
        {
          "indexed": false,
          "internalType": "uint256",
          "name": "nonce",
          "type": "uint256"
        },
        {
          "indexed": true,
          "internalType": "enum BridgeBase.Step",
          "name": "step",
          "type": "uint8"
        }
      ],
      "name": "Transfer",
      "type": "event"
    },
    {
      "inputs": [],
      "name": "burnAddress",
      "outputs": [
        {
          "internalType": "address",
          "name": "",
          "type": "address"
        }
      ],
      "stateMutability": "view",
      "type": "function"
    },
    {
      "inputs": [],
      "name": "nonce",
      "outputs": [
        {
          "internalType": "uint256",
          "name": "",
          "type": "uint256"
        }
      ],
      "stateMutability": "view",
      "type": "function"
    },
    {
      "inputs": [],
      "name": "owner",
      "outputs": [
        {
          "internalType": "address",
          "name": "",
          "type": "address"
        }
      ],
      "stateMutability": "view",
      "type": "function"
    },
    {
      "inputs": [
        {
          "internalType": "uint256",
          "name": "",
          "type": "uint256"
        }
      ],
      "name": "processedNonces",
      "outputs": [
        {
          "internalType": "bool",
          "name": "",
          "type": "bool"
        }
      ],
      "stateMutability": "view",
      "type": "function"
    },
    {
      "inputs": [],
      "name": "renounceOwnership",
      "outputs": [],
      "stateMutability": "nonpayable",
      "type": "function"
    },
    {
      "inputs": [],
      "name": "token",
      "outputs": [
        {
          "internalType": "contract IToken",
          "name": "",
          "type": "address"
        }
      ],
      "stateMutability": "view",
      "type": "function"
    },
    {
      "inputs": [
        {
          "internalType": "address",
          "name": "to",
          "type": "address"
        },
        {
          "internalType": "uint256",
          "name": "amount",
          "type": "uint256"
        }
      ],
      "name": "tokenBurn",
      "outputs": [],
      "stateMutability": "nonpayable",
      "type": "function"
    },
    {
      "inputs": [
        {
          "internalType": "address",
          "name": "to",
          "type": "address"
        },
        {
          "internalType": "uint256",
          "name": "amount",
          "type": "uint256"
        },
        {
          "internalType": "uint256",
          "name": "otherChainNonce",
          "type": "uint256"
        }
      ],
      "name": "tokenTransfer",
      "outputs": [],
      "stateMutability": "nonpayable",
      "type": "function"
    },
    {
      "inputs": [
        {
          "internalType": "address",
          "name": "newOwner",
          "type": "address"
        }
      ],
      "name": "transferOwnership",
      "outputs": [],
      "stateMutability": "nonpayable",
      "type": "function"
    }
  ],
  "bytecode": "0x608060405261dead600260006101000a81548173ffffffffffffffffffffffffffffffffffffffff021916908373ffffffffffffffffffffffffffffffffffffffff1602179055503480156200005457600080fd5b50604051620012413803806200124183398181016040528101906200007a919062000221565b806200009b6200008f620000eb60201b60201c565b620000f360201b60201c565b6001808190555080600360006101000a81548173ffffffffffffffffffffffffffffffffffffffff021916908373ffffffffffffffffffffffffffffffffffffffff160217905550505062000253565b600033905090565b60008060009054906101000a900473ffffffffffffffffffffffffffffffffffffffff169050816000806101000a81548173ffffffffffffffffffffffffffffffffffffffff021916908373ffffffffffffffffffffffffffffffffffffffff1602179055508173ffffffffffffffffffffffffffffffffffffffff168173ffffffffffffffffffffffffffffffffffffffff167f8be0079c531659141344cd1fd0a4f28419497f9722a3daafe3b4186f6b6457e060405160405180910390a35050565b600080fd5b600073ffffffffffffffffffffffffffffffffffffffff82169050919050565b6000620001e982620001bc565b9050919050565b620001fb81620001dc565b81146200020757600080fd5b50565b6000815190506200021b81620001f0565b92915050565b6000602082840312156200023a5762000239620001b7565b5b60006200024a848285016200020a565b91505092915050565b610fde80620002636000396000f3fe608060405234801561001057600080fd5b50600436106100935760003560e01c8063affed0e011610066578063affed0e01461010e578063cd2f73571461012c578063f2fde38b14610148578063f88d7f3114610164578063fc0c546a1461018057610093565b806370d5ae0514610098578063715018a6146100b65780638da5cb5b146100c057806391dae519146100de575b600080fd5b6100a061019e565b6040516100ad91906108ac565b60405180910390f35b6100be6101c4565b005b6100c86101d8565b6040516100d591906108ac565b60405180910390f35b6100f860048036038101906100f39190610902565b610201565b604051610105919061094a565b60405180910390f35b610116610221565b6040516101239190610974565b60405180910390f35b610146600480360381019061014191906109bb565b610227565b005b610162600480360381019061015d9190610a0e565b6103b8565b005b61017e60048036038101906101799190610a3b565b61043b565b005b6101886106a3565b6040516101959190610ada565b60405180910390f35b600260009054906101000a900473ffffffffffffffffffffffffffffffffffffffff1681565b6101cc6106c9565b6101d66000610747565b565b60008060009054906101000a900473ffffffffffffffffffffffffffffffffffffffff16905090565b60056020528060005260406000206000915054906101000a900460ff1681565b60045481565b61022f61080b565b6102376106c9565b600015156005600083815260200190815260200160002060009054906101000a900460ff1615151461029e576040517f08c379a000000000000000000000000000000000000000000000000000000000815260040161029590610b52565b60405180910390fd5b60016005600083815260200190815260200160002060006101000a81548160ff021916908315150217905550600360009054906101000a900473ffffffffffffffffffffffffffffffffffffffff1673ffffffffffffffffffffffffffffffffffffffff1663a9059cbb84846040518363ffffffff1660e01b8152600401610327929190610b72565b600060405180830381600087803b15801561034157600080fd5b505af1158015610355573d6000803e3d6000fd5b5050505060018081111561036c5761036b610b9b565b5b7f27757542a5e1b9e8cef80f584e094d4eb63b9802f355c61b3640b71b618d5c8e33858542866040516103a3959493929190610bca565b60405180910390a26103b361085a565b505050565b6103c06106c9565b600073ffffffffffffffffffffffffffffffffffffffff168173ffffffffffffffffffffffffffffffffffffffff160361042f576040517f08c379a000000000000000000000000000000000000000000000000000000000815260040161042690610c8f565b60405180910390fd5b61043881610747565b50565b61044361080b565b80600360009054906101000a900473ffffffffffffffffffffffffffffffffffffffff1673ffffffffffffffffffffffffffffffffffffffff166370a08231336040518263ffffffff1660e01b815260040161049f91906108ac565b602060405180830381865afa1580156104bc573d6000803e3d6000fd5b505050506040513d601f19601f820116820180604052508101906104e09190610cc4565b1015610521576040517f08c379a000000000000000000000000000000000000000000000000000000000815260040161051890610d3d565b60405180910390fd5b6000600360009054906101000a900473ffffffffffffffffffffffffffffffffffffffff1673ffffffffffffffffffffffffffffffffffffffff166323b872dd33600260009054906101000a900473ffffffffffffffffffffffffffffffffffffffff16856040518463ffffffff1660e01b81526004016105a493929190610d5d565b6020604051808303816000875af11580156105c3573d6000803e3d6000fd5b505050506040513d601f19601f820116820180604052508101906105e79190610dc0565b905080610629576040517f08c379a000000000000000000000000000000000000000000000000000000000815260040161062090610e39565b60405180910390fd5b6000600181111561063d5761063c610b9b565b5b7f27757542a5e1b9e8cef80f584e094d4eb63b9802f355c61b3640b71b618d5c8e33858542600454604051610676959493929190610bca565b60405180910390a26004600081548092919061069190610e88565b91905055505061069f61085a565b5050565b600360009054906101000a900473ffffffffffffffffffffffffffffffffffffffff1681565b6106d1610863565b73ffffffffffffffffffffffffffffffffffffffff166106ef6101d8565b73ffffffffffffffffffffffffffffffffffffffff1614610745576040517f08c379a000000000000000000000000000000000000000000000000000000000815260040161073c90610f1c565b60405180910390fd5b565b60008060009054906101000a900473ffffffffffffffffffffffffffffffffffffffff169050816000806101000a81548173ffffffffffffffffffffffffffffffffffffffff021916908373ffffffffffffffffffffffffffffffffffffffff1602179055508173ffffffffffffffffffffffffffffffffffffffff168173ffffffffffffffffffffffffffffffffffffffff167f8be0079c531659141344cd1fd0a4f28419497f9722a3daafe3b4186f6b6457e060405160405180910390a35050565b600260015403610850576040517f08c379a000000000000000000000000000000000000000000000000000000000815260040161084790610f88565b60405180910390fd5b6002600181905550565b60018081905550565b600033905090565b600073ffffffffffffffffffffffffffffffffffffffff82169050919050565b60006108968261086b565b9050919050565b6108a68161088b565b82525050565b60006020820190506108c1600083018461089d565b92915050565b600080fd5b6000819050919050565b6108df816108cc565b81146108ea57600080fd5b50565b6000813590506108fc816108d6565b92915050565b600060208284031215610918576109176108c7565b5b6000610926848285016108ed565b91505092915050565b60008115159050919050565b6109448161092f565b82525050565b600060208201905061095f600083018461093b565b92915050565b61096e816108cc565b82525050565b60006020820190506109896000830184610965565b92915050565b6109988161088b565b81146109a357600080fd5b50565b6000813590506109b58161098f565b92915050565b6000806000606084860312156109d4576109d36108c7565b5b60006109e2868287016109a6565b93505060206109f3868287016108ed565b9250506040610a04868287016108ed565b9150509250925092565b600060208284031215610a2457610a236108c7565b5b6000610a32848285016109a6565b91505092915050565b60008060408385031215610a5257610a516108c7565b5b6000610a60858286016109a6565b9250506020610a71858286016108ed565b9150509250929050565b6000819050919050565b6000610aa0610a9b610a968461086b565b610a7b565b61086b565b9050919050565b6000610ab282610a85565b9050919050565b6000610ac482610aa7565b9050919050565b610ad481610ab9565b82525050565b6000602082019050610aef6000830184610acb565b92915050565b600082825260208201905092915050565b7f7472616e7366657220616c72656164792070726f636573736564000000000000600082015250565b6000610b3c601a83610af5565b9150610b4782610b06565b602082019050919050565b60006020820190508181036000830152610b6b81610b2f565b9050919050565b6000604082019050610b87600083018561089d565b610b946020830184610965565b9392505050565b7f4e487b7100000000000000000000000000000000000000000000000000000000600052602160045260246000fd5b600060a082019050610bdf600083018861089d565b610bec602083018761089d565b610bf96040830186610965565b610c066060830185610965565b610c136080830184610965565b9695505050505050565b7f4f776e61626c653a206e6577206f776e657220697320746865207a65726f206160008201527f6464726573730000000000000000000000000000000000000000000000000000602082015250565b6000610c79602683610af5565b9150610c8482610c1d565b604082019050919050565b60006020820190508181036000830152610ca881610c6c565b9050919050565b600081519050610cbe816108d6565b92915050565b600060208284031215610cda57610cd96108c7565b5b6000610ce884828501610caf565b91505092915050565b7f496e737566666963656e742042616c616e636500000000000000000000000000600082015250565b6000610d27601383610af5565b9150610d3282610cf1565b602082019050919050565b60006020820190508181036000830152610d5681610d1a565b9050919050565b6000606082019050610d72600083018661089d565b610d7f602083018561089d565b610d8c6040830184610965565b949350505050565b610d9d8161092f565b8114610da857600080fd5b50565b600081519050610dba81610d94565b92915050565b600060208284031215610dd657610dd56108c7565b5b6000610de484828501610dab565b91505092915050565b7f546f6b656e207472616e736665722066726f6d2075736572206661696c656400600082015250565b6000610e23601f83610af5565b9150610e2e82610ded565b602082019050919050565b60006020820190508181036000830152610e5281610e16565b9050919050565b7f4e487b7100000000000000000000000000000000000000000000000000000000600052601160045260246000fd5b6000610e93826108cc565b91507fffffffffffffffffffffffffffffffffffffffffffffffffffffffffffffffff8203610ec557610ec4610e59565b5b600182019050919050565b7f4f776e61626c653a2063616c6c6572206973206e6f7420746865206f776e6572600082015250565b6000610f06602083610af5565b9150610f1182610ed0565b602082019050919050565b60006020820190508181036000830152610f3581610ef9565b9050919050565b7f5265656e7472616e637947756172643a207265656e7472616e742063616c6c00600082015250565b6000610f72601f83610af5565b9150610f7d82610f3c565b602082019050919050565b60006020820190508181036000830152610fa181610f65565b905091905056fea26469706673582212202de38a653dd433a04a085e10c33c69a08190f339422c2cdbbeb2acee0e0e467a64736f6c63430008120033",
  "linkReferences": {},
  "deployedLinkReferences": {}
}