{
  "_format": "hh-sol-artifact-1",
  "contractName": "TokenBase",
  "sourceName": "contracts/TokenBase.sol",
  "abi": [
    {
      "inputs": [
        {
          "internalType": "string",
          "name": "name",
          "type": "string"
        },
        {
          "internalType": "string",
          "name": "symbol",
          "type": "string"
        }
      ],
      "stateMutability": "nonpayable",
      "type": "constructor"
    },
    {
      "anonymous": false,
      "inputs": [
        {
          "indexed": true,
          "internalType": "address",
          "name": "owner",
          "type": "address"
        },
        {
          "indexed": true,
          "internalType": "address",
          "name": "spender",
          "type": "address"
        },
        {
          "indexed": false,
          "internalType": "uint256",
          "name": "value",
          "type": "uint256"
        }
      ],
      "name": "Approval",
      "type": "event"
    },
    {
      "anonymous": false,
      "inputs": [
        {
          "indexed": true,
          "internalType": "address",
          "name": "previousOwner",
          "type": "address"
        },
        {
          "indexed": true,
          "internalType": "address",
          "name": "newOwner",
          "type": "address"
        }
      ],
      "name": "OwnershipTransferred",
      "type": "event"
    },
    {
      "anonymous": false,
      "inputs": [
        {
          "indexed": true,
          "internalType": "address",
          "name": "from",
          "type": "address"
        },
        {
          "indexed": true,
          "internalType": "address",
          "name": "to",
          "type": "address"
        },
        {
          "indexed": false,
          "internalType": "uint256",
          "name": "value",
          "type": "uint256"
        }
      ],
      "name": "Transfer",
      "type": "event"
    },
    {
      "inputs": [],
      "name": "admin",
      "outputs": [
        {
          "internalType": "address",
          "name": "",
          "type": "address"
        }
      ],
      "stateMutability": "view",
      "type": "function"
    },
    {
      "inputs": [
        {
          "internalType": "address",
          "name": "owner",
          "type": "address"
        },
        {
          "internalType": "address",
          "name": "spender",
          "type": "address"
        }
      ],
      "name": "allowance",
      "outputs": [
        {
          "internalType": "uint256",
          "name": "",
          "type": "uint256"
        }
      ],
      "stateMutability": "view",
      "type": "function"
    },
    {
      "inputs": [
        {
          "internalType": "address",
          "name": "spender",
          "type": "address"
        },
        {
          "internalType": "uint256",
          "name": "amount",
          "type": "uint256"
        }
      ],
      "name": "approve",
      "outputs": [
        {
          "internalType": "bool",
          "name": "",
          "type": "bool"
        }
      ],
      "stateMutability": "nonpayable",
      "type": "function"
    },
    {
      "inputs": [
        {
          "internalType": "address",
          "name": "account",
          "type": "address"
        }
      ],
      "name": "balanceOf",
      "outputs": [
        {
          "internalType": "uint256",
          "name": "",
          "type": "uint256"
        }
      ],
      "stateMutability": "view",
      "type": "function"
    },
    {
      "inputs": [],
      "name": "decimals",
      "outputs": [
        {
          "internalType": "uint8",
          "name": "",
          "type": "uint8"
        }
      ],
      "stateMutability": "view",
      "type": "function"
    },
    {
      "inputs": [
        {
          "internalType": "address",
          "name": "spender",
          "type": "address"
        },
        {
          "internalType": "uint256",
          "name": "subtractedValue",
          "type": "uint256"
        }
      ],
      "name": "decreaseAllowance",
      "outputs": [
        {
          "internalType": "bool",
          "name": "",
          "type": "bool"
        }
      ],
      "stateMutability": "nonpayable",
      "type": "function"
    },
    {
      "inputs": [
        {
          "internalType": "address",
          "name": "spender",
          "type": "address"
        },
        {
          "internalType": "uint256",
          "name": "addedValue",
          "type": "uint256"
        }
      ],
      "name": "increaseAllowance",
      "outputs": [
        {
          "internalType": "bool",
          "name": "",
          "type": "bool"
        }
      ],
      "stateMutability": "nonpayable",
      "type": "function"
    },
    {
      "inputs": [],
      "name": "name",
      "outputs": [
        {
          "internalType": "string",
          "name": "",
          "type": "string"
        }
      ],
      "stateMutability": "view",
      "type": "function"
    },
    {
      "inputs": [],
      "name": "owner",
      "outputs": [
        {
          "internalType": "address",
          "name": "",
          "type": "address"
        }
      ],
      "stateMutability": "view",
      "type": "function"
    },
    {
      "inputs": [],
      "name": "renounceOwnership",
      "outputs": [],
      "stateMutability": "nonpayable",
      "type": "function"
    },
    {
      "inputs": [],
      "name": "symbol",
      "outputs": [
        {
          "internalType": "string",
          "name": "",
          "type": "string"
        }
      ],
      "stateMutability": "view",
      "type": "function"
    },
    {
      "inputs": [],
      "name": "totalSupply",
      "outputs": [
        {
          "internalType": "uint256",
          "name": "",
          "type": "uint256"
        }
      ],
      "stateMutability": "view",
      "type": "function"
    },
    {
      "inputs": [
        {
          "internalType": "address",
          "name": "to",
          "type": "address"
        },
        {
          "internalType": "uint256",
          "name": "amount",
          "type": "uint256"
        }
      ],
      "name": "transfer",
      "outputs": [
        {
          "internalType": "bool",
          "name": "",
          "type": "bool"
        }
      ],
      "stateMutability": "nonpayable",
      "type": "function"
    },
    {
      "inputs": [
        {
          "internalType": "address",
          "name": "from",
          "type": "address"
        },
        {
          "internalType": "address",
          "name": "to",
          "type": "address"
        },
        {
          "internalType": "uint256",
          "name": "amount",
          "type": "uint256"
        }
      ],
      "name": "transferFrom",
      "outputs": [
        {
          "internalType": "bool",
          "name": "",
          "type": "bool"
        }
      ],
      "stateMutability": "nonpayable",
      "type": "function"
    },
    {
      "inputs": [
        {
          "internalType": "address",
          "name": "newOwner",
          "type": "address"
        }
      ],
      "name": "transferOwnership",
      "outputs": [],
      "stateMutability": "nonpayable",
      "type": "function"
    }
  ],
  "bytecode": "0x60806040523480156200001157600080fd5b50604051620021f6380380620021f68339818101604052810190620000379190620004e7565b818181600390816200004a9190620007b7565b5080600490816200005c9190620007b7565b5050506200007f620000736200010660201b60201c565b6200010e60201b60201c565b33600660006101000a81548173ffffffffffffffffffffffffffffffffffffffff021916908373ffffffffffffffffffffffffffffffffffffffff160217905550620000fe33620000d5620001d460201b60201c565b600a620000e3919062000a2e565b6103e8620000f2919062000a7f565b620001dd60201b60201c565b505062000bb6565b600033905090565b6000600560009054906101000a900473ffffffffffffffffffffffffffffffffffffffff16905081600560006101000a81548173ffffffffffffffffffffffffffffffffffffffff021916908373ffffffffffffffffffffffffffffffffffffffff1602179055508173ffffffffffffffffffffffffffffffffffffffff168173ffffffffffffffffffffffffffffffffffffffff167f8be0079c531659141344cd1fd0a4f28419497f9722a3daafe3b4186f6b6457e060405160405180910390a35050565b60006012905090565b600073ffffffffffffffffffffffffffffffffffffffff168273ffffffffffffffffffffffffffffffffffffffff16036200024f576040517f08c379a0000000000000000000000000000000000000000000000000000000008152600401620002469062000b2b565b60405180910390fd5b62000263600083836200034a60201b60201c565b806002600082825462000277919062000b4d565b92505081905550806000808473ffffffffffffffffffffffffffffffffffffffff1673ffffffffffffffffffffffffffffffffffffffff168152602001908152602001600020600082825401925050819055508173ffffffffffffffffffffffffffffffffffffffff16600073ffffffffffffffffffffffffffffffffffffffff167fddf252ad1be2c89b69c2b068fc378daa952ba7f163c4a11628f55a4df523b3ef836040516200032a919062000b99565b60405180910390a362000346600083836200034f60201b60201c565b5050565b505050565b505050565b6000604051905090565b600080fd5b600080fd5b600080fd5b600080fd5b6000601f19601f8301169050919050565b7f4e487b7100000000000000000000000000000000000000000000000000000000600052604160045260246000fd5b620003bd8262000372565b810181811067ffffffffffffffff82111715620003df57620003de62000383565b5b80604052505050565b6000620003f462000354565b9050620004028282620003b2565b919050565b600067ffffffffffffffff82111562000425576200042462000383565b5b620004308262000372565b9050602081019050919050565b60005b838110156200045d57808201518184015260208101905062000440565b60008484015250505050565b6000620004806200047a8462000407565b620003e8565b9050828152602081018484840111156200049f576200049e6200036d565b5b620004ac8482856200043d565b509392505050565b600082601f830112620004cc57620004cb62000368565b5b8151620004de84826020860162000469565b91505092915050565b600080604083850312156200050157620005006200035e565b5b600083015167ffffffffffffffff81111562000522576200052162000363565b5b6200053085828601620004b4565b925050602083015167ffffffffffffffff81111562000554576200055362000363565b5b6200056285828601620004b4565b9150509250929050565b600081519050919050565b7f4e487b7100000000000000000000000000000000000000000000000000000000600052602260045260246000fd5b60006002820490506001821680620005bf57607f821691505b602082108103620005d557620005d462000577565b5b50919050565b60008190508160005260206000209050919050565b60006020601f8301049050919050565b600082821b905092915050565b6000600883026200063f7fffffffffffffffffffffffffffffffffffffffffffffffffffffffffffffffff8262000600565b6200064b868362000600565b95508019841693508086168417925050509392505050565b6000819050919050565b6000819050919050565b600062000698620006926200068c8462000663565b6200066d565b62000663565b9050919050565b6000819050919050565b620006b48362000677565b620006cc620006c3826200069f565b8484546200060d565b825550505050565b600090565b620006e3620006d4565b620006f0818484620006a9565b505050565b5b8181101562000718576200070c600082620006d9565b600181019050620006f6565b5050565b601f82111562000767576200073181620005db565b6200073c84620005f0565b810160208510156200074c578190505b620007646200075b85620005f0565b830182620006f5565b50505b505050565b600082821c905092915050565b60006200078c600019846008026200076c565b1980831691505092915050565b6000620007a7838362000779565b9150826002028217905092915050565b620007c2826200056c565b67ffffffffffffffff811115620007de57620007dd62000383565b5b620007ea8254620005a6565b620007f78282856200071c565b600060209050601f8311600181146200082f57600084156200081a578287015190505b62000826858262000799565b86555062000896565b601f1984166200083f86620005db565b60005b82811015620008695784890151825560018201915060208501945060208101905062000842565b8683101562000889578489015162000885601f89168262000779565b8355505b6001600288020188555050505b505050505050565b7f4e487b7100000000000000000000000000000000000000000000000000000000600052601160045260246000fd5b60008160011c9050919050565b6000808291508390505b60018511156200092c578086048111156200090457620009036200089e565b5b6001851615620009145780820291505b80810290506200092485620008cd565b9450620008e4565b94509492505050565b60008262000947576001905062000a1a565b8162000957576000905062000a1a565b81600181146200097057600281146200097b57620009b1565b600191505062000a1a565b60ff84111562000990576200098f6200089e565b5b8360020a915084821115620009aa57620009a96200089e565b5b5062000a1a565b5060208310610133831016604e8410600b8410161715620009eb5782820a905083811115620009e557620009e46200089e565b5b62000a1a565b620009fa8484846001620008da565b9250905081840481111562000a145762000a136200089e565b5b81810290505b9392505050565b600060ff82169050919050565b600062000a3b8262000663565b915062000a488362000a21565b925062000a777fffffffffffffffffffffffffffffffffffffffffffffffffffffffffffffffff848462000935565b905092915050565b600062000a8c8262000663565b915062000a998362000663565b925082820262000aa98162000663565b9150828204841483151762000ac35762000ac26200089e565b5b5092915050565b600082825260208201905092915050565b7f45524332303a206d696e7420746f20746865207a65726f206164647265737300600082015250565b600062000b13601f8362000aca565b915062000b208262000adb565b602082019050919050565b6000602082019050818103600083015262000b468162000b04565b9050919050565b600062000b5a8262000663565b915062000b678362000663565b925082820190508082111562000b825762000b816200089e565b5b92915050565b62000b938162000663565b82525050565b600060208201905062000bb0600083018462000b88565b92915050565b6116308062000bc66000396000f3fe608060405234801561001057600080fd5b50600436106100f55760003560e01c8063715018a611610097578063a9059cbb11610066578063a9059cbb1461028a578063dd62ed3e146102ba578063f2fde38b146102ea578063f851a44014610306576100f5565b8063715018a6146102145780638da5cb5b1461021e57806395d89b411461023c578063a457c2d71461025a576100f5565b806323b872dd116100d357806323b872dd14610166578063313ce5671461019657806339509351146101b457806370a08231146101e4576100f5565b806306fdde03146100fa578063095ea7b31461011857806318160ddd14610148575b600080fd5b610102610324565b60405161010f9190610de5565b60405180910390f35b610132600480360381019061012d9190610ea0565b6103b6565b60405161013f9190610efb565b60405180910390f35b6101506103d9565b60405161015d9190610f25565b60405180910390f35b610180600480360381019061017b9190610f40565b6103e3565b60405161018d9190610efb565b60405180910390f35b61019e610412565b6040516101ab9190610faf565b60405180910390f35b6101ce60048036038101906101c99190610ea0565b61041b565b6040516101db9190610efb565b60405180910390f35b6101fe60048036038101906101f99190610fca565b610452565b60405161020b9190610f25565b60405180910390f35b61021c61049a565b005b6102266104ae565b6040516102339190611006565b60405180910390f35b6102446104d8565b6040516102519190610de5565b60405180910390f35b610274600480360381019061026f9190610ea0565b61056a565b6040516102819190610efb565b60405180910390f35b6102a4600480360381019061029f9190610ea0565b6105e1565b6040516102b19190610efb565b60405180910390f35b6102d460048036038101906102cf9190611021565b610604565b6040516102e19190610f25565b60405180910390f35b61030460048036038101906102ff9190610fca565b61068b565b005b61030e61070e565b60405161031b9190611006565b60405180910390f35b60606003805461033390611090565b80601f016020809104026020016040519081016040528092919081815260200182805461035f90611090565b80156103ac5780601f10610381576101008083540402835291602001916103ac565b820191906000526020600020905b81548152906001019060200180831161038f57829003601f168201915b5050505050905090565b6000806103c1610734565b90506103ce81858561073c565b600191505092915050565b6000600254905090565b6000806103ee610734565b90506103fb858285610905565b610406858585610991565b60019150509392505050565b60006012905090565b600080610426610734565b90506104478185856104388589610604565b61044291906110f0565b61073c565b600191505092915050565b60008060008373ffffffffffffffffffffffffffffffffffffffff1673ffffffffffffffffffffffffffffffffffffffff168152602001908152602001600020549050919050565b6104a2610c07565b6104ac6000610c85565b565b6000600560009054906101000a900473ffffffffffffffffffffffffffffffffffffffff16905090565b6060600480546104e790611090565b80601f016020809104026020016040519081016040528092919081815260200182805461051390611090565b80156105605780601f1061053557610100808354040283529160200191610560565b820191906000526020600020905b81548152906001019060200180831161054357829003601f168201915b5050505050905090565b600080610575610734565b905060006105838286610604565b9050838110156105c8576040517f08c379a00000000000000000000000000000000000000000000000000000000081526004016105bf90611196565b60405180910390fd5b6105d5828686840361073c565b60019250505092915050565b6000806105ec610734565b90506105f9818585610991565b600191505092915050565b6000600160008473ffffffffffffffffffffffffffffffffffffffff1673ffffffffffffffffffffffffffffffffffffffff16815260200190815260200160002060008373ffffffffffffffffffffffffffffffffffffffff1673ffffffffffffffffffffffffffffffffffffffff16815260200190815260200160002054905092915050565b610693610c07565b600073ffffffffffffffffffffffffffffffffffffffff168173ffffffffffffffffffffffffffffffffffffffff1603610702576040517f08c379a00000000000000000000000000000000000000000000000000000000081526004016106f990611228565b60405180910390fd5b61070b81610c85565b50565b600660009054906101000a900473ffffffffffffffffffffffffffffffffffffffff1681565b600033905090565b600073ffffffffffffffffffffffffffffffffffffffff168373ffffffffffffffffffffffffffffffffffffffff16036107ab576040517f08c379a00000000000000000000000000000000000000000000000000000000081526004016107a2906112ba565b60405180910390fd5b600073ffffffffffffffffffffffffffffffffffffffff168273ffffffffffffffffffffffffffffffffffffffff160361081a576040517f08c379a00000000000000000000000000000000000000000000000000000000081526004016108119061134c565b60405180910390fd5b80600160008573ffffffffffffffffffffffffffffffffffffffff1673ffffffffffffffffffffffffffffffffffffffff16815260200190815260200160002060008473ffffffffffffffffffffffffffffffffffffffff1673ffffffffffffffffffffffffffffffffffffffff168152602001908152602001600020819055508173ffffffffffffffffffffffffffffffffffffffff168373ffffffffffffffffffffffffffffffffffffffff167f8c5be1e5ebec7d5bd14f71427d1e84f3dd0314c0f7b2291e5b200ac8c7c3b925836040516108f89190610f25565b60405180910390a3505050565b60006109118484610604565b90507fffffffffffffffffffffffffffffffffffffffffffffffffffffffffffffffff811461098b578181101561097d576040517f08c379a0000000000000000000000000000000000000000000000000000000008152600401610974906113b8565b60405180910390fd5b61098a848484840361073c565b5b50505050565b600073ffffffffffffffffffffffffffffffffffffffff168373ffffffffffffffffffffffffffffffffffffffff1603610a00576040517f08c379a00000000000000000000000000000000000000000000000000000000081526004016109f79061144a565b60405180910390fd5b600073ffffffffffffffffffffffffffffffffffffffff168273ffffffffffffffffffffffffffffffffffffffff1603610a6f576040517f08c379a0000000000000000000000000000000000000000000000000000000008152600401610a66906114dc565b60405180910390fd5b610a7a838383610d4b565b60008060008573ffffffffffffffffffffffffffffffffffffffff1673ffffffffffffffffffffffffffffffffffffffff16815260200190815260200160002054905081811015610b00576040517f08c379a0000000000000000000000000000000000000000000000000000000008152600401610af79061156e565b60405180910390fd5b8181036000808673ffffffffffffffffffffffffffffffffffffffff1673ffffffffffffffffffffffffffffffffffffffff16815260200190815260200160002081905550816000808573ffffffffffffffffffffffffffffffffffffffff1673ffffffffffffffffffffffffffffffffffffffff168152602001908152602001600020600082825401925050819055508273ffffffffffffffffffffffffffffffffffffffff168473ffffffffffffffffffffffffffffffffffffffff167fddf252ad1be2c89b69c2b068fc378daa952ba7f163c4a11628f55a4df523b3ef84604051610bee9190610f25565b60405180910390a3610c01848484610d50565b50505050565b610c0f610734565b73ffffffffffffffffffffffffffffffffffffffff16610c2d6104ae565b73ffffffffffffffffffffffffffffffffffffffff1614610c83576040517f08c379a0000000000000000000000000000000000000000000000000000000008152600401610c7a906115da565b60405180910390fd5b565b6000600560009054906101000a900473ffffffffffffffffffffffffffffffffffffffff16905081600560006101000a81548173ffffffffffffffffffffffffffffffffffffffff021916908373ffffffffffffffffffffffffffffffffffffffff1602179055508173ffffffffffffffffffffffffffffffffffffffff168173ffffffffffffffffffffffffffffffffffffffff167f8be0079c531659141344cd1fd0a4f28419497f9722a3daafe3b4186f6b6457e060405160405180910390a35050565b505050565b505050565b600081519050919050565b600082825260208201905092915050565b60005b83811015610d8f578082015181840152602081019050610d74565b60008484015250505050565b6000601f19601f8301169050919050565b6000610db782610d55565b610dc18185610d60565b9350610dd1818560208601610d71565b610dda81610d9b565b840191505092915050565b60006020820190508181036000830152610dff8184610dac565b905092915050565b600080fd5b600073ffffffffffffffffffffffffffffffffffffffff82169050919050565b6000610e3782610e0c565b9050919050565b610e4781610e2c565b8114610e5257600080fd5b50565b600081359050610e6481610e3e565b92915050565b6000819050919050565b610e7d81610e6a565b8114610e8857600080fd5b50565b600081359050610e9a81610e74565b92915050565b60008060408385031215610eb757610eb6610e07565b5b6000610ec585828601610e55565b9250506020610ed685828601610e8b565b9150509250929050565b60008115159050919050565b610ef581610ee0565b82525050565b6000602082019050610f106000830184610eec565b92915050565b610f1f81610e6a565b82525050565b6000602082019050610f3a6000830184610f16565b92915050565b600080600060608486031215610f5957610f58610e07565b5b6000610f6786828701610e55565b9350506020610f7886828701610e55565b9250506040610f8986828701610e8b565b9150509250925092565b600060ff82169050919050565b610fa981610f93565b82525050565b6000602082019050610fc46000830184610fa0565b92915050565b600060208284031215610fe057610fdf610e07565b5b6000610fee84828501610e55565b91505092915050565b61100081610e2c565b82525050565b600060208201905061101b6000830184610ff7565b92915050565b6000806040838503121561103857611037610e07565b5b600061104685828601610e55565b925050602061105785828601610e55565b9150509250929050565b7f4e487b7100000000000000000000000000000000000000000000000000000000600052602260045260246000fd5b600060028204905060018216806110a857607f821691505b6020821081036110bb576110ba611061565b5b50919050565b7f4e487b7100000000000000000000000000000000000000000000000000000000600052601160045260246000fd5b60006110fb82610e6a565b915061110683610e6a565b925082820190508082111561111e5761111d6110c1565b5b92915050565b7f45524332303a2064656372656173656420616c6c6f77616e63652062656c6f7760008201527f207a65726f000000000000000000000000000000000000000000000000000000602082015250565b6000611180602583610d60565b915061118b82611124565b604082019050919050565b600060208201905081810360008301526111af81611173565b9050919050565b7f4f776e61626c653a206e6577206f776e657220697320746865207a65726f206160008201527f6464726573730000000000000000000000000000000000000000000000000000602082015250565b6000611212602683610d60565b915061121d826111b6565b604082019050919050565b6000602082019050818103600083015261124181611205565b9050919050565b7f45524332303a20617070726f76652066726f6d20746865207a65726f2061646460008201527f7265737300000000000000000000000000000000000000000000000000000000602082015250565b60006112a4602483610d60565b91506112af82611248565b604082019050919050565b600060208201905081810360008301526112d381611297565b9050919050565b7f45524332303a20617070726f766520746f20746865207a65726f20616464726560008201527f7373000000000000000000000000000000000000000000000000000000000000602082015250565b6000611336602283610d60565b9150611341826112da565b604082019050919050565b6000602082019050818103600083015261136581611329565b9050919050565b7f45524332303a20696e73756666696369656e7420616c6c6f77616e6365000000600082015250565b60006113a2601d83610d60565b91506113ad8261136c565b602082019050919050565b600060208201905081810360008301526113d181611395565b9050919050565b7f45524332303a207472616e736665722066726f6d20746865207a65726f20616460008201527f6472657373000000000000000000000000000000000000000000000000000000602082015250565b6000611434602583610d60565b915061143f826113d8565b604082019050919050565b6000602082019050818103600083015261146381611427565b9050919050565b7f45524332303a207472616e7366657220746f20746865207a65726f206164647260008201527f6573730000000000000000000000000000000000000000000000000000000000602082015250565b60006114c6602383610d60565b91506114d18261146a565b604082019050919050565b600060208201905081810360008301526114f5816114b9565b9050919050565b7f45524332303a207472616e7366657220616d6f756e742065786365656473206260008201527f616c616e63650000000000000000000000000000000000000000000000000000602082015250565b6000611558602683610d60565b9150611563826114fc565b604082019050919050565b600060208201905081810360008301526115878161154b565b9050919050565b7f4f776e61626c653a2063616c6c6572206973206e6f7420746865206f776e6572600082015250565b60006115c4602083610d60565b91506115cf8261158e565b602082019050919050565b600060208201905081810360008301526115f3816115b7565b905091905056fea26469706673582212200915688309651ff8a2a43dc9741b973bcf1b02825364ac5291f57539c6c4768864736f6c63430008120033",
  "linkReferences": {},
  "deployedLinkReferences": {}
}